{
    "contractName": "PairVoting",
    "abi": [
        {
            "inputs": [
                {
                    "internalType": "address[]",
                    "name": "managerList",
                    "type": "address[]"
                },
                {
                    "internalType": "uint256",
                    "name": "_maxProposalCount",
                    "type": "uint256"
                },
                {
                    "internalType": "uint256",
                    "name": "proposalLifetime",
                    "type": "uint256"
                },
                {
                    "internalType": "uint256",
                    "name": "_votingLifetime",
                    "type": "uint256"
                }
            ],
            "stateMutability": "nonpayable",
            "type": "constructor"
        },
        {
            "anonymous": false,
            "inputs": [
                {
                    "indexed": true,
                    "internalType": "uint256",
                    "name": "_id",
                    "type": "uint256"
                },
                {
                    "indexed": true,
                    "internalType": "address",
                    "name": "_from",
                    "type": "address"
                },
                {
                    "indexed": false,
                    "internalType": "string",
                    "name": "_platformName",
                    "type": "string"
                }
            ],
            "name": "Proposed",
            "type": "event"
        },
        {
            "anonymous": false,
            "inputs": [
                {
                    "indexed": true,
                    "internalType": "enum PairVoting.States",
                    "name": "_from",
                    "type": "uint8"
                },
                {
                    "indexed": true,
                    "internalType": "enum PairVoting.States",
                    "name": "_to",
                    "type": "uint8"
                }
            ],
            "name": "StateChanged",
            "type": "event"
        },
        {
            "inputs": [],
            "name": "currentProposals",
            "outputs": [
                {
                    "internalType": "uint256[]",
                    "name": "",
                    "type": "uint256[]"
                }
            ],
            "stateMutability": "view",
            "type": "function"
        },
        {
            "inputs": [],
            "name": "currentState",
            "outputs": [
                {
                    "internalType": "string",
                    "name": "",
                    "type": "string"
                }
            ],
            "stateMutability": "view",
            "type": "function"
        },
        {
            "inputs": [],
            "name": "electionResult",
            "outputs": [
                {
                    "internalType": "uint256",
                    "name": "",
                    "type": "uint256"
                }
            ],
            "stateMutability": "view",
            "type": "function"
        },
        {
            "inputs": [
                {
                    "internalType": "uint256[]",
                    "name": "vec",
                    "type": "uint256[]"
                }
            ],
            "name": "getRank",
            "outputs": [
                {
                    "internalType": "uint256",
                    "name": "",
                    "type": "uint256"
                }
            ],
            "stateMutability": "pure",
            "type": "function"
        },
        {
            "inputs": [
                {
                    "internalType": "address",
                    "name": "account",
                    "type": "address"
                }
            ],
            "name": "isManager",
            "outputs": [
                {
                    "internalType": "bool",
                    "name": "",
                    "type": "bool"
                }
            ],
            "stateMutability": "view",
            "type": "function"
        },
        {
            "inputs": [
                {
                    "internalType": "string",
                    "name": "_platformName",
                    "type": "string"
                }
            ],
            "name": "propose",
            "outputs": [],
            "stateMutability": "nonpayable",
            "type": "function"
        },
        {
            "inputs": [
                {
                    "internalType": "uint256",
                    "name": "rank",
                    "type": "uint256"
                }
            ],
            "name": "vote",
            "outputs": [],
            "stateMutability": "nonpayable",
            "type": "function"
        }
    ],
    "bytecode": "60806040526000600155600060065560006007553480156200002057600080fd5b5060405162001e2138038062001e218339810160408190526200004391620001a8565b601e831115620000995760405162461bcd60e51b815260206004820152601d60248201527f6d617850726f706f73616c436f756e7420697320746f6f206869676821000000604482015260640160405180910390fd5b336000908152600860205260408120600390555b8451811015620000f957620000e4858281518110620000d057620000d062000295565b60200260200101516200012e60201b60201c565b80620000f081620002c1565b915050620000ad565b5083516006556003839055620001108242620002df565b60025560058190556200012460006200014b565b5050505062000310565b6001600160a01b0316600090815260086020526040902060039055565b6000805482919060ff191660018360028111156200016d576200016d620002fa565b021790555050565b634e487b7160e01b600052604160045260246000fd5b80516001600160a01b0381168114620001a357600080fd5b919050565b60008060008060808587031215620001bf57600080fd5b84516001600160401b0380821115620001d757600080fd5b818701915087601f830112620001ec57600080fd5b815160208282111562000203576200020362000175565b8160051b604051601f19603f830116810181811086821117156200022b576200022b62000175565b60405292835281830193508481018201928b8411156200024a57600080fd5b948201945b83861015620002735762000263866200018b565b855294820194938201936200024f565b918a015160408b01516060909b0151929c909b50919850909650505050505050565b634e487b7160e01b600052603260045260246000fd5b634e487b7160e01b600052601160045260246000fd5b6000600019821415620002d857620002d8620002ab565b5060010190565b60008219821115620002f557620002f5620002ab565b500190565b634e487b7160e01b600052602160045260246000fd5b611b0180620003206000396000f3fe608060405234801561001057600080fd5b506004361061007d5760003560e01c80639dd8e76f1161005b5780639dd8e76f146100d6578063aa98df39146100eb578063e22b5d19146100fe578063f3ae24151461010657600080fd5b80630121b93f146100825780630c3f6acf146100975780635785aee1146100b5575b600080fd5b6100956100903660046116f0565b610141565b005b61009f6102cc565b6040516100ac9190611709565b60405180910390f35b6100c86100c3366004611774565b610393565b6040519081526020016100ac565b6100de6104de565b6040516100ac9190611832565b6100956100f9366004611876565b610576565b6100c861071c565b6101316101143660046118e8565b6001600160a01b0316600090815260086020526040902054151590565b60405190151581526020016100ac565b336000908152600860205260409020546101765760405162461bcd60e51b815260040161016d90611911565b60405180910390fd5b336000908152600860205260409020546001106101ca5760405162461bcd60e51b8152602060048201526012602482015271596f7520616c726561647920766f7465642160701b604482015260640161016d565b6000805460ff1660028111156101e2576101e2611955565b1480156101f157506002544210155b15610203576101fe610756565b610238565b600160005460ff16600281111561021c5761021c611955565b14801561022b57506004544210155b15610238576102386107a0565b60018060005460ff16600281111561025257610252611955565b1461026f5760405162461bcd60e51b815260040161016d9061196b565b6000828152600960205260408120805491610289836119c8565b90915550503360009081526008602052604081206001905560078054916102af836119c8565b919050555060065460075414156102c8576102c86107a0565b5050565b60606000805460ff1660028111156102e6576102e6611955565b141561030f5750604080518082019091526008815267141c9bdc1bdcd85b60c21b602082015290565b600160005460ff16600281111561032857610328611955565b141561034f5750604080518082019091526006815265566f74696e6760d01b602082015290565b6103576107b3565b15610380575060408051808201909152600981526810dbdb5c1b195d195960ba1b602082015290565b5060408051602081019091526000815290565b8051600090818167ffffffffffffffff8111156103b2576103b261175e565b6040519080825280602002602001820160405280156103db578160200160208202803683370190505b50905060008267ffffffffffffffff8111156103f9576103f961175e565b604051908082528060200260200182016040528015610422578160200160208202803683370190505b50905060005b838110156104c657858181518110610442576104426119e3565b602002602001015183828151811061045c5761045c6119e3565b60209081029190910101526104728160016119f9565b826001888481518110610487576104876119e3565b60200260200101516104999190611a11565b815181106104a9576104a96119e3565b6020908102919091010152806104be816119c8565b915050610428565b5060006104d48484846107e1565b9695505050505050565b6060600060015467ffffffffffffffff8111156104fd576104fd61175e565b604051908082528060200260200182016040528015610526578160200160208202803683370190505b50905060005b600154811015610570576105418160016119f9565b828281518110610553576105536119e3565b602090810291909101015280610568816119c8565b91505061052c565b50919050565b336000908152600860205260409020546105a25760405162461bcd60e51b815260040161016d90611911565b6000805460ff1660028111156105ba576105ba611955565b1480156105c957506002544210155b156105db576105d6610756565b610610565b600160005460ff1660028111156105f4576105f4611955565b14801561060357506004544210155b15610610576106106107a0565b60008060005460ff16600281111561062a5761062a611955565b146106475760405162461bcd60e51b815260040161016d9061196b565b3360009081526008602052604090205460021061069e5760405162461bcd60e51b8152602060048201526015602482015274596f7520616c72656164792070726f706f7365642160581b604482015260640161016d565b600180549060006106ae836119c8565b909155505033600081815260086020526040908190206002905560015490517f53d20bea7f03a447e60000b0845f7514e5d52344d489960a4aaabb244e95a18f906106fc9087908790611a28565b60405180910390a36003546001541061071757610717610756565b505050565b60006107266107b3565b6107425760405162461bcd60e51b815260040161016d9061196b565b6001546107508160096109c5565b91505090565b6107606001610aa1565b60055461076d90426119f9565b600455600160005b6040517fe8a97ea87e4388fa22d496b95a8ed5ced6717f49790318de2b928aaf37a021d890600090a3565b6107aa6002610aa1565b60026001610775565b6000600260005460ff1660028111156107ce576107ce611955565b14806107dc57506004544210155b905090565b60008060028510156107f75760009150506109be565b6001846108048288611a11565b81518110610814576108146119e3565b60200260200101516108269190611a11565b9050836001846108368289611a11565b81518110610846576108466119e3565b60200260200101516108589190611a11565b81518110610868576108686119e3565b60200260200101518460018761087e9190611a11565b8151811061088e5761088e6119e3565b6020026020010151856001886108a49190611a11565b815181106108b4576108b46119e3565b602002602001018660018760018b6108cc9190611a11565b815181106108dc576108dc6119e3565b60200260200101516108ee9190611a11565b815181106108fe576108fe6119e3565b60209081029190910101919091525282610919600187611a11565b81518110610929576109296119e3565b6020026020010151838281518110610943576109436119e3565b602002602001015184838151811061095d5761095d6119e3565b60200260200101856001896109729190611a11565b81518110610982576109826119e3565b6020908102919091010191909152526109a661099f600187611a11565b85856107e1565b6109b09086611a57565b6109ba90826119f9565b9150505b9392505050565b6000806109d28484610ac8565b905060006109e08583610d4a565b905060005b85811015610a9357600160005b87811015610a635783610a068260016119f9565b81518110610a1657610a166119e3565b6020026020010151836001610a2b91906119f9565b81518110610a3b57610a3b6119e3565b602002602001015115610a515760009150610a63565b80610a5b816119c8565b9150506109f2565b508015610a8057610a758260016119f9565b945050505050610a9b565b5080610a8b816119c8565b9150506109e5565b506000925050505b92915050565b6000805482919060ff19166001836002811115610ac057610ac0611955565b021790555050565b606060006002610ad9600186611a11565b610ae39086611a57565b610aed9190611a8c565b905060008167ffffffffffffffff811115610b0a57610b0a61175e565b604051908082528060200260200182016040528015610b4357816020015b610b306116b4565b815260200190600190039081610b285790505b50905060005b85811015610d415760008181526020869052604090205480610b6b5750610d2f565b600080610b78848a610eb4565b905060005b89811015610d2a576000610b928260016119f9565b90505b8a811015610d1757868481518110610baf57610baf6119e3565b6020026020010151600060048110610bc957610bc96119e3565b6020020151610c4b57610bdd8260016119f9565b878581518110610bef57610bef6119e3565b6020026020010151600060048110610c0957610c096119e3565b6020020152610c198160016119f9565b878581518110610c2b57610c2b6119e3565b6020026020010151600160048110610c4557610c456119e3565b60200201525b610c6a83610c5a8460016119f9565b610c658460016119f9565b610f58565b15610cb55784878581518110610c8257610c826119e3565b6020026020010151600260048110610c9c57610c9c6119e3565b60200201818151610cad91906119f9565b905250610cf7565b84878581518110610cc857610cc86119e3565b6020026020010151600360048110610ce257610ce26119e3565b60200201818151610cf391906119f9565b9052505b83610d01816119c8565b9450508080610d0f906119c8565b915050610b95565b5080610d22816119c8565b915050610b7d565b505050505b80610d39816119c8565b915050610b49565b50949350505050565b60606000610d588484610fd8565b90506000610d6582611336565b90506000610d7c610d778760016119f9565b61148a565b905060005b8251811015610eaa57610df6838281518110610d9f57610d9f6119e3565b6020026020010151600160038110610db957610db96119e3565b6020020151848381518110610dd057610dd06119e3565b6020026020010151600060038110610dea57610dea6119e3565b60200201518985611562565b610e9857600182848381518110610e0f57610e0f6119e3565b6020026020010151600060038110610e2957610e296119e3565b602002015181518110610e3e57610e3e6119e3565b6020026020010151848381518110610e5857610e586119e3565b6020026020010151600160038110610e7257610e726119e3565b602002015181518110610e8757610e876119e3565b911515602092830291909101909101525b80610ea2816119c8565b915050610d81565b5095945050505050565b60606000808367ffffffffffffffff811115610ed257610ed261175e565b604051908082528060200260200182016040528015610efb578160200160208202803683370190505b509050600091505b83821015610f4557610f168260016119f9565b818381518110610f2857610f286119e3565b602090810291909101015281610f3d816119c8565b925050610f03565b610f508585836115e9565b949350505050565b6000805b8451811015610fcd5783858281518110610f7857610f786119e3565b60200260200101511415610f905760019150506109be565b82858281518110610fa357610fa36119e3565b60200260200101511415610fbb5760009150506109be565b80610fc5816119c8565b915050610f5c565b506000949350505050565b606060006002610fe9600186611a11565b610ff39086611a57565b610ffd9190611a8c565b905060008167ffffffffffffffff81111561101a5761101a61175e565b60405190808252806020026020018201604052801561105357816020015b6110406116d2565b8152602001906001900390816110385790505b50905060005b8451811015610d4157848181518110611074576110746119e3565b602002602001015160036004811061108e5761108e6119e3565b60200201518582815181106110a5576110a56119e3565b60200260200101516002600481106110bf576110bf6119e3565b602002015111156111f9578481815181106110dc576110dc6119e3565b60200260200101516000600481106110f6576110f66119e3565b602002015182828151811061110d5761110d6119e3565b6020026020010151600060038110611127576111276119e3565b60200201528451859082908110611140576111406119e3565b602002602001015160016004811061115a5761115a6119e3565b6020020151828281518110611171576111716119e3565b602002602001015160016003811061118b5761118b6119e3565b602002015284518590829081106111a4576111a46119e3565b60200260200101516002600481106111be576111be6119e3565b60200201518282815181106111d5576111d56119e3565b60200260200101516002600381106111ef576111ef6119e3565b6020020152611324565b84818151811061120b5761120b6119e3565b6020026020010151600160048110611225576112256119e3565b602002015182828151811061123c5761123c6119e3565b6020026020010151600060038110611256576112566119e3565b6020020152845185908290811061126f5761126f6119e3565b6020026020010151600060048110611289576112896119e3565b60200201518282815181106112a0576112a06119e3565b60200260200101516001600381106112ba576112ba6119e3565b602002015284518590829081106112d3576112d36119e3565b60200260200101516003600481106112ed576112ed6119e3565b6020020151828281518110611304576113046119e3565b602002602001015160026003811061131e5761131e6119e3565b60200201525b8061132e816119c8565b915050611059565b805160609060015b8181101561148257600084828151811061135a5761135a6119e3565b6020026020010151600260038110611374576113746119e3565b602002015190506000611388600184611a11565b9050600086848151811061139e5761139e6119e3565b602002602001015190505b828783815181106113bc576113bc6119e3565b60200260200101516002600381106113d6576113d66119e3565b60200201511015611444578682815181106113f3576113f36119e3565b60200260200101518783600161140991906119f9565b81518110611419576114196119e3565b6020026020010181905250816000141561143257611444565b8161143c81611aa0565b9250506113a9565b80876114518460016119f9565b81518110611461576114616119e3565b6020026020010181905250505050808061147a906119c8565b91505061133e565b509192915050565b606060008267ffffffffffffffff8111156114a7576114a761175e565b6040519080825280602002602001820160405280156114da57816020015b60608152602001906001900390816114c55790505b50905060005b8381101561155b578367ffffffffffffffff8111156115015761150161175e565b60405190808252806020026020018201604052801561152a578160200160208202803683370190505b5082828151811061153d5761153d6119e3565b60200260200101819052508080611553906119c8565b9150506114e0565b5092915050565b60008385141561157457506001610f50565b60005b838110156115dd57828681518110611591576115916119e3565b602002602001015181815181106115aa576115aa6119e3565b6020026020010151156115cb576115c381868686611562565b915050610f50565b806115d5816119c8565b915050611577565b50600095945050505050565b60008060018410156115fc575050505050565b6116068486611a8c565b91506116128486611ab7565b905082611620600186611a11565b81518110611630576116306119e3565b602002602001015183828151811061164a5761164a6119e3565b6020026020010151848381518110611664576116646119e3565b60200260200101856001886116799190611a11565b81518110611689576116896119e3565b6020908102919091010191909152526116ad826116a7600187611a11565b856115e9565b5050505050565b60405180608001604052806004906020820280368337509192915050565b60405180606001604052806003906020820280368337509192915050565b60006020828403121561170257600080fd5b5035919050565b600060208083528351808285015260005b818110156117365785810183015185820160400152820161171a565b81811115611748576000604083870101525b50601f01601f1916929092016040019392505050565b634e487b7160e01b600052604160045260246000fd5b6000602080838503121561178757600080fd5b823567ffffffffffffffff8082111561179f57600080fd5b818501915085601f8301126117b357600080fd5b8135818111156117c5576117c561175e565b8060051b604051601f19603f830116810181811085821117156117ea576117ea61175e565b60405291825284820192508381018501918883111561180857600080fd5b938501935b828510156118265784358452938501939285019261180d565b98975050505050505050565b6020808252825182820181905260009190848201906040850190845b8181101561186a5783518352928401929184019160010161184e565b50909695505050505050565b6000806020838503121561188957600080fd5b823567ffffffffffffffff808211156118a157600080fd5b818501915085601f8301126118b557600080fd5b8135818111156118c457600080fd5b8660208285010111156118d657600080fd5b60209290920196919550909350505050565b6000602082840312156118fa57600080fd5b81356001600160a01b03811681146109be57600080fd5b60208082526024908201527f4f6e6c79206d616e61676572732063616e2063616c6c20746869732066756e636040820152633a34b7b760e11b606082015260800190565b634e487b7160e01b600052602160045260246000fd5b60208082526027908201527f46756e6374696f6e2063616e6e6f742062652063616c6c65642061742074686960408201526639903a34b6b29760c91b606082015260800190565b634e487b7160e01b600052601160045260246000fd5b60006000198214156119dc576119dc6119b2565b5060010190565b634e487b7160e01b600052603260045260246000fd5b60008219821115611a0c57611a0c6119b2565b500190565b600082821015611a2357611a236119b2565b500390565b60208152816020820152818360408301376000818301604090810191909152601f909201601f19160101919050565b6000816000190483118215151615611a7157611a716119b2565b500290565b634e487b7160e01b600052601260045260246000fd5b600082611a9b57611a9b611a76565b500490565b600081611aaf57611aaf6119b2565b506000190190565b600082611ac657611ac6611a76565b50069056fea2646970667358221220b281d7a15cbe7f3d6ba62c8261dd740d41efdc4e2d014f51fad988d71899aa8364736f6c63430008090033",
    "sourcePath": "/Users/ceyonur/workspace/boun/gentract/contracts/PairVoting.sol",
    "compiler": {
        "name": "solc",
        "version": "0.8.9+commit.e5eed63a"
    },
    "functionHashes": {
        "currentProposals()": "9dd8e76f",
        "currentState()": "0c3f6acf",
        "electionResult()": "e22b5d19",
        "getRank(uint256[])": "5785aee1",
        "isManager(address)": "f3ae2415",
        "propose(string)": "aa98df39",
        "vote(uint256)": "0121b93f"
    },
    "gasEstimates": {
        "creation": {
            "codeDepositCost": "1382600",
            "executionCost": "infinite",
            "totalCost": "infinite"
        },
        "external": {
            "currentProposals()": "infinite",
            "currentState()": "infinite",
            "electionResult()": "infinite",
            "getRank(uint256[])": "infinite",
            "isManager(address)": "2580",
            "propose(string)": "59340",
            "vote(uint256)": "infinite"
        },
        "internal": {
            "_setupRole(address)": "infinite",
            "isCompletedState()": "4291",
            "toCompletedState()": "25852",
            "toState(enum PairVoting.States)": "24280",
            "toVotingState()": "50116"
        }
    }
}