{
    "contractName": "ZKPairVoting",
    "abi": [
        {
            "inputs": [
                {
                    "internalType": "address[]",
                    "name": "proposerList",
                    "type": "address[]"
                },
                {
                    "internalType": "uint256",
                    "name": "_maxProposalCount",
                    "type": "uint256"
                },
                {
                    "internalType": "uint256",
                    "name": "proposalLifetime",
                    "type": "uint256"
                },
                {
                    "internalType": "uint256",
                    "name": "_votingLifetime",
                    "type": "uint256"
                },
                {
                    "internalType": "uint232",
                    "name": "_firstExternalNullifier",
                    "type": "uint232"
                }
            ],
            "stateMutability": "nonpayable",
            "type": "constructor"
        },
        {
            "anonymous": false,
            "inputs": [
                {
                    "indexed": true,
                    "internalType": "uint232",
                    "name": "externalNullifier",
                    "type": "uint232"
                }
            ],
            "name": "ExternalNullifierAdd",
            "type": "event"
        },
        {
            "anonymous": false,
            "inputs": [
                {
                    "indexed": true,
                    "internalType": "uint232",
                    "name": "externalNullifier",
                    "type": "uint232"
                },
                {
                    "indexed": true,
                    "internalType": "bool",
                    "name": "active",
                    "type": "bool"
                }
            ],
            "name": "ExternalNullifierChangeStatus",
            "type": "event"
        },
        {
            "anonymous": false,
            "inputs": [
                {
                    "indexed": true,
                    "internalType": "uint256",
                    "name": "startIndex",
                    "type": "uint256"
                },
                {
                    "indexed": true,
                    "internalType": "uint256",
                    "name": "endIndex",
                    "type": "uint256"
                },
                {
                    "indexed": true,
                    "internalType": "uint256",
                    "name": "root",
                    "type": "uint256"
                }
            ],
            "name": "LeavesInsertion",
            "type": "event"
        },
        {
            "anonymous": false,
            "inputs": [
                {
                    "indexed": true,
                    "internalType": "address",
                    "name": "previousOwner",
                    "type": "address"
                },
                {
                    "indexed": true,
                    "internalType": "address",
                    "name": "newOwner",
                    "type": "address"
                }
            ],
            "name": "OwnershipTransferred",
            "type": "event"
        },
        {
            "anonymous": false,
            "inputs": [
                {
                    "indexed": true,
                    "internalType": "bool",
                    "name": "newPermission",
                    "type": "bool"
                }
            ],
            "name": "PermissionSet",
            "type": "event"
        },
        {
            "anonymous": false,
            "inputs": [
                {
                    "indexed": true,
                    "internalType": "uint256",
                    "name": "_id",
                    "type": "uint256"
                },
                {
                    "indexed": true,
                    "internalType": "address",
                    "name": "_from",
                    "type": "address"
                },
                {
                    "indexed": false,
                    "internalType": "string",
                    "name": "_proposal",
                    "type": "string"
                }
            ],
            "name": "Proposed",
            "type": "event"
        },
        {
            "anonymous": false,
            "inputs": [
                {
                    "indexed": true,
                    "internalType": "enum ZKPairVoting.States",
                    "name": "_from",
                    "type": "uint8"
                },
                {
                    "indexed": true,
                    "internalType": "enum ZKPairVoting.States",
                    "name": "_to",
                    "type": "uint8"
                }
            ],
            "name": "StateChanged",
            "type": "event"
        },
        {
            "inputs": [],
            "name": "NOTHING_UP_MY_SLEEVE_ZERO",
            "outputs": [
                {
                    "internalType": "uint256",
                    "name": "",
                    "type": "uint256"
                }
            ],
            "stateMutability": "view",
            "type": "function"
        },
        {
            "inputs": [
                {
                    "internalType": "uint232",
                    "name": "_externalNullifier",
                    "type": "uint232"
                }
            ],
            "name": "activateExternalNullifier",
            "outputs": [],
            "stateMutability": "nonpayable",
            "type": "function"
        },
        {
            "inputs": [],
            "name": "currentProposals",
            "outputs": [
                {
                    "internalType": "uint256[]",
                    "name": "",
                    "type": "uint256[]"
                }
            ],
            "stateMutability": "view",
            "type": "function"
        },
        {
            "inputs": [],
            "name": "currentState",
            "outputs": [
                {
                    "internalType": "string",
                    "name": "",
                    "type": "string"
                }
            ],
            "stateMutability": "view",
            "type": "function"
        },
        {
            "inputs": [
                {
                    "internalType": "uint232",
                    "name": "_externalNullifier",
                    "type": "uint232"
                }
            ],
            "name": "deactivateExternalNullifier",
            "outputs": [],
            "stateMutability": "nonpayable",
            "type": "function"
        },
        {
            "inputs": [],
            "name": "electionResult",
            "outputs": [
                {
                    "internalType": "uint256",
                    "name": "",
                    "type": "uint256"
                }
            ],
            "stateMutability": "view",
            "type": "function"
        },
        {
            "inputs": [
                {
                    "internalType": "uint232",
                    "name": "",
                    "type": "uint232"
                }
            ],
            "name": "externalNullifiers",
            "outputs": [
                {
                    "internalType": "bool",
                    "name": "",
                    "type": "bool"
                }
            ],
            "stateMutability": "view",
            "type": "function"
        },
        {
            "inputs": [],
            "name": "getNumIdentityCommitments",
            "outputs": [
                {
                    "internalType": "uint256",
                    "name": "",
                    "type": "uint256"
                }
            ],
            "stateMutability": "view",
            "type": "function"
        },
        {
            "inputs": [
                {
                    "internalType": "uint256[]",
                    "name": "vec",
                    "type": "uint256[]"
                }
            ],
            "name": "getRank",
            "outputs": [
                {
                    "internalType": "uint256",
                    "name": "",
                    "type": "uint256"
                }
            ],
            "stateMutability": "pure",
            "type": "function"
        },
        {
            "inputs": [
                {
                    "internalType": "uint256[]",
                    "name": "_identityCommitments",
                    "type": "uint256[]"
                },
                {
                    "internalType": "uint256",
                    "name": "_root",
                    "type": "uint256"
                }
            ],
            "name": "insertIdentities",
            "outputs": [
                {
                    "internalType": "uint256",
                    "name": "",
                    "type": "uint256"
                },
                {
                    "internalType": "uint256",
                    "name": "",
                    "type": "uint256"
                }
            ],
            "stateMutability": "nonpayable",
            "type": "function"
        },
        {
            "inputs": [
                {
                    "internalType": "uint256",
                    "name": "_identityCommitment",
                    "type": "uint256"
                },
                {
                    "internalType": "uint256",
                    "name": "_root",
                    "type": "uint256"
                }
            ],
            "name": "insertIdentity",
            "outputs": [
                {
                    "internalType": "uint256",
                    "name": "",
                    "type": "uint256"
                }
            ],
            "stateMutability": "nonpayable",
            "type": "function"
        },
        {
            "inputs": [],
            "name": "isBroadcastPermissioned",
            "outputs": [
                {
                    "internalType": "bool",
                    "name": "",
                    "type": "bool"
                }
            ],
            "stateMutability": "view",
            "type": "function"
        },
        {
            "inputs": [
                {
                    "internalType": "address",
                    "name": "account",
                    "type": "address"
                }
            ],
            "name": "isEligibleProposer",
            "outputs": [
                {
                    "internalType": "bool",
                    "name": "",
                    "type": "bool"
                }
            ],
            "stateMutability": "view",
            "type": "function"
        },
        {
            "inputs": [
                {
                    "internalType": "uint232",
                    "name": "_externalNullifier",
                    "type": "uint232"
                }
            ],
            "name": "isExternalNullifierActive",
            "outputs": [
                {
                    "internalType": "bool",
                    "name": "",
                    "type": "bool"
                }
            ],
            "stateMutability": "view",
            "type": "function"
        },
        {
            "inputs": [],
            "name": "isOwner",
            "outputs": [
                {
                    "internalType": "bool",
                    "name": "",
                    "type": "bool"
                }
            ],
            "stateMutability": "view",
            "type": "function"
        },
        {
            "inputs": [
                {
                    "internalType": "uint256",
                    "name": "",
                    "type": "uint256"
                }
            ],
            "name": "nullifierHashHistory",
            "outputs": [
                {
                    "internalType": "bool",
                    "name": "",
                    "type": "bool"
                }
            ],
            "stateMutability": "view",
            "type": "function"
        },
        {
            "inputs": [],
            "name": "owner",
            "outputs": [
                {
                    "internalType": "address",
                    "name": "",
                    "type": "address"
                }
            ],
            "stateMutability": "view",
            "type": "function"
        },
        {
            "inputs": [
                {
                    "internalType": "uint256[2]",
                    "name": "_a",
                    "type": "uint256[2]"
                },
                {
                    "internalType": "uint256[2][2]",
                    "name": "_b",
                    "type": "uint256[2][2]"
                },
                {
                    "internalType": "uint256[2]",
                    "name": "_c",
                    "type": "uint256[2]"
                }
            ],
            "name": "packProof",
            "outputs": [
                {
                    "internalType": "uint256[8]",
                    "name": "",
                    "type": "uint256[8]"
                }
            ],
            "stateMutability": "pure",
            "type": "function"
        },
        {
            "inputs": [
                {
                    "internalType": "bytes",
                    "name": "_signal",
                    "type": "bytes"
                },
                {
                    "internalType": "uint256[8]",
                    "name": "_proof",
                    "type": "uint256[8]"
                },
                {
                    "internalType": "uint256",
                    "name": "_nullifiersHash",
                    "type": "uint256"
                },
                {
                    "internalType": "uint256",
                    "name": "_signalHash",
                    "type": "uint256"
                },
                {
                    "internalType": "uint232",
                    "name": "_externalNullifier",
                    "type": "uint232"
                }
            ],
            "name": "preBroadcastCheck",
            "outputs": [
                {
                    "internalType": "bool",
                    "name": "",
                    "type": "bool"
                }
            ],
            "stateMutability": "view",
            "type": "function"
        },
        {
            "inputs": [
                {
                    "internalType": "string",
                    "name": "_proposal",
                    "type": "string"
                }
            ],
            "name": "propose",
            "outputs": [],
            "stateMutability": "nonpayable",
            "type": "function"
        },
        {
            "inputs": [],
            "name": "renounceOwnership",
            "outputs": [],
            "stateMutability": "nonpayable",
            "type": "function"
        },
        {
            "inputs": [],
            "name": "root",
            "outputs": [
                {
                    "internalType": "uint256",
                    "name": "",
                    "type": "uint256"
                }
            ],
            "stateMutability": "view",
            "type": "function"
        },
        {
            "inputs": [
                {
                    "internalType": "bool",
                    "name": "_newPermission",
                    "type": "bool"
                }
            ],
            "name": "setPermissioning",
            "outputs": [],
            "stateMutability": "nonpayable",
            "type": "function"
        },
        {
            "inputs": [
                {
                    "internalType": "address",
                    "name": "newOwner",
                    "type": "address"
                }
            ],
            "name": "transferOwnership",
            "outputs": [],
            "stateMutability": "nonpayable",
            "type": "function"
        },
        {
            "inputs": [
                {
                    "internalType": "uint256[8]",
                    "name": "_proof",
                    "type": "uint256[8]"
                }
            ],
            "name": "unpackProof",
            "outputs": [
                {
                    "internalType": "uint256[2]",
                    "name": "",
                    "type": "uint256[2]"
                },
                {
                    "internalType": "uint256[2][2]",
                    "name": "",
                    "type": "uint256[2][2]"
                },
                {
                    "internalType": "uint256[2]",
                    "name": "",
                    "type": "uint256[2]"
                }
            ],
            "stateMutability": "pure",
            "type": "function"
        },
        {
            "inputs": [
                {
                    "internalType": "uint256[2]",
                    "name": "a",
                    "type": "uint256[2]"
                },
                {
                    "internalType": "uint256[2][2]",
                    "name": "b",
                    "type": "uint256[2][2]"
                },
                {
                    "internalType": "uint256[2]",
                    "name": "c",
                    "type": "uint256[2]"
                },
                {
                    "internalType": "uint256[4]",
                    "name": "input",
                    "type": "uint256[4]"
                }
            ],
            "name": "verifyProof",
            "outputs": [
                {
                    "internalType": "bool",
                    "name": "r",
                    "type": "bool"
                }
            ],
            "stateMutability": "view",
            "type": "function"
        },
        {
            "inputs": [
                {
                    "internalType": "uint256",
                    "name": "rank",
                    "type": "uint256"
                },
                {
                    "internalType": "bytes32",
                    "name": "_signal",
                    "type": "bytes32"
                },
                {
                    "internalType": "uint256[8]",
                    "name": "_proof",
                    "type": "uint256[8]"
                },
                {
                    "internalType": "uint256",
                    "name": "_nullifiersHash",
                    "type": "uint256"
                },
                {
                    "internalType": "uint232",
                    "name": "_externalNullifier",
                    "type": "uint232"
                }
            ],
            "name": "vote",
            "outputs": [],
            "stateMutability": "nonpayable",
            "type": "function"
        },
        {
            "inputs": [],
            "name": "voterCount",
            "outputs": [
                {
                    "internalType": "uint256",
                    "name": "",
                    "type": "uint256"
                }
            ],
            "stateMutability": "view",
            "type": "function"
        }
    ],
    "bytecode": "60006003556007805460ff191660011790556853656d6170686f726560b81b60a052600960805260a9604052620000777f30644e72e131a029b85045b68181585d2833e84879b9709143e1f593f00000017f7d10c03d1f7884c85edee6353bd2b2ffbae9221236edde3778eac58089912bc06200052b565b6009556000600b55600060115560006013553480156200009657600080fd5b5060405162004cd738038062004cd7833981016040819052620000b991620003ec565b60095460149082908290620000d2565b60405180910390fd5b6001919091556000908155600580546001600160a01b031916339081179091556040519091907f8be0079c531659141344cd1fd0a4f28419497f9722a3daafe3b4186f6b6457e0908290a36200012881620001b8565b5050601e600d5411156200017f5760405162461bcd60e51b815260206004820152601d60248201527f6d617850726f706f73616c436f756e7420697320746f6f2068696768210000006044820152606401620000c9565b6200018a8562000281565b6200019660006200035d565b600d849055620001a78342620004f2565b600c5550600f555062000578915050565b6001600160e81b03811660009081526006602052604090205460ff1615620002355760405162461bcd60e51b815260206004820152602960248201527f53656d6170686f72653a2065787465726e616c206e756c6c696669657220616c6044820152681c9958591e481cd95d60ba1b6064820152608401620000c9565b6001600160e81b038116600081815260066020526040808220805460ff19166001179055517fd1ca56647596090d70fa8d49bcc376b97248314e3f204c491333b3440405f5899190a250565b620002966005546001600160a01b0316331490565b620002e45760405162461bcd60e51b815260206004820181905260248201527f4f776e61626c653a2063616c6c6572206973206e6f7420746865206f776e65726044820152606401620000c9565b60005b81518110156200033f576200032a8282815181106200031657634e487b7160e01b600052603260045260246000fd5b60200260200101516200039360201b60201c565b8062000336816200050d565b915050620002e7565b50805160116000828254620003559190620004f2565b909155505050565b600a805482919060ff191660018360028111156200038b57634e487b7160e01b600052602160045260246000fd5b021790555050565b6001600160a01b03166000908152601060205260409020805460ff19166001179055565b80516001600160a01b0381168114620003cf57600080fd5b919050565b80516001600160e81b0381168114620003cf57600080fd5b600080600080600060a0868803121562000404578081fd5b85516001600160401b03808211156200041b578283fd5b818801915088601f8301126200042f578283fd5b815160208282111562000446576200044662000562565b8160051b604051601f19603f830116810181811086821117156200046e576200046e62000562565b604052838152828101945085830182870184018e10156200048d578788fd5b8796505b84871015620004ba57620004a581620003b7565b86526001969096019594830194830162000491565b50809a505050808a01519750505050506040860151925060608601519150620004e660808701620003d4565b90509295509295909350565b600082198211156200050857620005086200054c565b500190565b60006000198214156200052457620005246200054c565b5060010190565b6000826200054757634e487b7160e01b81526012600452602481fd5b500690565b634e487b7160e01b600052601160045260246000fd5b634e487b7160e01b600052604160045260246000fd5b61474f80620005886000396000f3fe608060405234801561001057600080fd5b50600436106101c45760003560e01c80638f32d59b116100f9578063ce85bbdb11610097578063ebf0c71711610071578063ebf0c717146103cd578063f2fde38b146103d6578063f484302d146103e9578063f5ab0dd6146103fc576101c4565b8063ce85bbdb1461039f578063e22b5d19146103b2578063eac4287e146103ba576101c4565b8063aa98df39116100d3578063aa98df391461034e578063ba10b81d14610361578063c4cd559614610369578063cb375a421461038c576101c4565b80638f32d59b1461031257806393a468f4146103265780639dd8e76f14610339576101c4565b80635785aee1116101665780635fe8c13b116101405780635fe8c13b146102d35780636ebf6265146102e6578063715018a6146102ef5780638da5cb5b146102f7576101c4565b80635785aee1146102785780635b5f31e51461028b5780635e05ea17146102b3576101c4565b80632e36a756116101a25780632e36a756146102195780632fac6dce1461022c57806342169e481461024f578063428c3eba14610265576101c4565b80630c3f6acf146101c957806323baaa83146101e7578063283ebaf4146101fc575b600080fd5b6101d161041e565b6040516101de9190614352565b60405180910390f35b6101fa6101f53660046141a6565b610509565b005b6007546102099060ff1681565b60405190151581526020016101de565b610209610227366004613eea565b6105c7565b61020961023a3660046141a6565b60066020526000908152604090205460ff1681565b6102576105e9565b6040519081526020016101de565b6101fa6102733660046141a6565b6105f9565b610257610286366004613fdd565b610635565b61029e61029936600461400f565b6107d2565b604080519283526020830191909152016101de565b6102c66102c1366004613f11565b61081a565b6040516101de91906142b9565b6102096102e1366004613f57565b61087c565b61025760095481565b6101fa610d96565b6005546040516001600160a01b0390911681526020016101de565b6102096005546001600160a01b0316331490565b610209610334366004614071565b610e10565b610341610f02565b6040516101de91906142eb565b6101fa61035c36600461413a565b610fb5565b600354610257565b6102096103773660046141c0565b60086020526000908152604090205460ff1681565b61025761039a36600461421f565b611175565b6101fa6103ad366004614051565b611239565b6102576112a6565b6102096103c83660046141a6565b61141a565b61025760045481565b6101fa6103e4366004613eea565b611438565b6101fa6103f73660046141d8565b611471565b61040f61040a366004613fc1565b611640565b6040516101de93929190614269565b60606000600a5460ff16600281111561044757634e487b7160e01b600052602160045260246000fd5b14156104725750604080518082019091526008815267141c9bdc1bdcd85b60c21b6020820152610506565b6001600a5460ff16600281111561049957634e487b7160e01b600052602160045260246000fd5b14156104c25750604080518082019091526006815265566f74696e6760d01b6020820152610506565b6104ca6116c9565b156104f5575060408051808201909152600981526810dbdb5c1b195d195960ba1b6020820152610506565b506040805160208101909152600081525b90565b61051d6005546001600160a01b0316331490565b6105425760405162461bcd60e51b81526004016105399061442f565b60405180910390fd5b6001600160e81b03811660009081526006602052604090205460ff1661057a5760405162461bcd60e51b815260040161053990614464565b6001600160e81b038116600081815260066020526040808220805460ff19169055519091907fb8d2b8a2b352df7f139810483b3c80fc3a4a88711c90bdb7180f1030b7f49acf908390a350565b6001600160a01b03811660009081526010602052604090205460ff165b919050565b60006105f460035490565b905090565b61060d6005546001600160a01b0316331490565b6106295760405162461bcd60e51b81526004016105399061442f565b61063281611703565b50565b805160009081816001600160401b0381111561066157634e487b7160e01b600052604160045260246000fd5b60405190808252806020026020018201604052801561068a578160200160208202803683370190505b5090506000826001600160401b038111156106b557634e487b7160e01b600052604160045260246000fd5b6040519080825280602002602001820160405280156106de578160200160208202803683370190505b50905060005b838110156107ba5785818151811061070c57634e487b7160e01b600052603260045260246000fd5b602002602001015183828151811061073457634e487b7160e01b600052603260045260246000fd5b602090810291909101015261074a8160016144db565b82600188848151811061076d57634e487b7160e01b600052603260045260246000fd5b602002602001015161077f919061463a565b8151811061079d57634e487b7160e01b600052603260045260246000fd5b6020908102919091010152806107b281614668565b9150506106e4565b5060006107c88484846117ca565b9695505050505050565b6000806107e96005546001600160a01b0316331490565b6108055760405162461bcd60e51b81526004016105399061442f565b61080f8484611a46565b915091509250929050565b610822613b57565b5060408051610100810182528451815260208086015181830152845151928201929092528351820151606082015283820180515160808301525182015160a0820152825160c08201529082015160e08201525b9392505050565b6000610886613b76565b604080518082018252875181526020808901518183015290835281516080810183528751518184019081528851830151606083015281528251808401845288830180515182525183015181840152818301528382015281518083018352865181528682015191810191909152908201526000610900611bd6565b6040805180820190915260008082526020820152835151919250906000805160206146da833981519152116109775760405162461bcd60e51b815260206004820152601760248201527f76657269666965722d61582d6774652d7072696d652d710000000000000000006044820152606401610539565b8251602001516000805160206146da833981519152116109d95760405162461bcd60e51b815260206004820152601760248201527f76657269666965722d61592d6774652d7072696d652d710000000000000000006044820152606401610539565b602083015151516000805160206146da83398151915211610a3c5760405162461bcd60e51b815260206004820152601860248201527f76657269666965722d6258302d6774652d7072696d652d7100000000000000006044820152606401610539565b6020838101510151516000805160206146da83398151915211610aa15760405162461bcd60e51b815260206004820152601860248201527f76657269666965722d6259302d6774652d7072696d652d7100000000000000006044820152606401610539565b6020838101515101516000805160206146da83398151915211610b065760405162461bcd60e51b815260206004820152601860248201527f76657269666965722d6258312d6774652d7072696d652d7100000000000000006044820152606401610539565b60208381015181015101516000805160206146da83398151915211610b6d5760405162461bcd60e51b815260206004820152601860248201527f76657269666965722d6259312d6774652d7072696d652d7100000000000000006044820152606401610539565b6040830151516000805160206146da83398151915211610bcf5760405162461bcd60e51b815260206004820152601760248201527f76657269666965722d63582d6774652d7072696d652d710000000000000000006044820152606401610539565b6000805160206146da83398151915283604001516020015110610c345760405162461bcd60e51b815260206004820152601760248201527f76657269666965722d63592d6774652d7072696d652d710000000000000000006044820152606401610539565b60005b6004811015610d40576000805160206146fa833981519152868260048110610c6f57634e487b7160e01b600052603260045260246000fd5b602002015110610cc15760405162461bcd60e51b815260206004820152601f60248201527f76657269666965722d6774652d736e61726b2d7363616c61722d6669656c64006044820152606401610539565b610d2c82610d278560800151846001610cda91906144db565b60058110610cf857634e487b7160e01b600052603260045260246000fd5b6020020151898560048110610d1d57634e487b7160e01b600052603260045260246000fd5b6020020151611ff6565b612092565b915080610d3881614668565b915050610c37565b50608082015151610d52908290612092565b9050610d88610d64846000015161212a565b846020015184600001518560200151858760400151896040015189606001516121c2565b93505050505b949350505050565b610daa6005546001600160a01b0316331490565b610dc65760405162461bcd60e51b81526004016105399061442f565b6005546040516000916001600160a01b0316907f8be0079c531659141344cd1fd0a4f28419497f9722a3daafe3b4186f6b6457e0908390a3600580546001600160a01b0319169055565b604080516080810182526004548152602081018590529081018390526001600160e81b0382166060820152600090818080610e4a89611640565b60008b815260086020526040902054929550909350915060ff16158015610e795750895160208b012060081c87145b8015610e8d5750895160208b012060081c87145b8015610e9d5750610e9d8661141a565b8015610ead5750610ead8961255c565b8015610ec857506000805160206146fa833981519152600454105b8015610ee157506000805160206146fa83398151915288105b8015610ef45750610ef48383838761087c565b9a9950505050505050505050565b60606000600b546001600160401b03811115610f2e57634e487b7160e01b600052604160045260246000fd5b604051908082528060200260200182016040528015610f57578160200160208202803683370190505b50905060005b600b54811015610faf57610f728160016144db565b828281518110610f9257634e487b7160e01b600052603260045260246000fd5b602090810291909101015280610fa781614668565b915050610f5d565b50905090565b3360009081526010602052604090205460ff166110145760405162461bcd60e51b815260206004820152601f60248201527f596f75277265206e6f7420656c696769626c6520746f2070726f706f736521006044820152606401610539565b6000600a5460ff16600281111561103b57634e487b7160e01b600052602160045260246000fd5b14801561104a5750600c544210155b1561105c57611057612642565b61109f565b6001600a5460ff16600281111561108357634e487b7160e01b600052602160045260246000fd5b1480156110925750600e544210155b1561109f5761109f61268c565b600080600a5460ff1660028111156110c757634e487b7160e01b600052602160045260246000fd5b146110e45760405162461bcd60e51b8152600401610539906143e8565b600b80549060006110f483614668565b90915550503360008181526010602052604090819020805460ff19169055600b5490517f53d20bea7f03a447e60000b0845f7514e5d52344d489960a4aaabb244e95a18f906111469087908790614323565b60405180910390a3600d54600b5414806111635750601154600b54145b1561117057611170612642565b505050565b600061118b6005546001600160a01b0316331490565b6111a75760405162461bcd60e51b81526004016105399061442f565b60095483141561122f5760405162461bcd60e51b815260206004820152604760248201527f53656d6170686f72653a206964656e7469747920636f6d6d69746d656e74206360448201527f616e6e6f7420626520746865206e6f7468696e672d75702d6d792d736c656576606482015266652d76616c756560c81b608482015260a401610539565b610875838361269f565b61124d6005546001600160a01b0316331490565b6112695760405162461bcd60e51b81526004016105399061442f565b6007805460ff19168215159081179091556040517ffba91b9002bc7732a7bff1b44ee16a30ebaeb06d7921779034c6a6ab27e69c2790600090a250565b60006112b06116c9565b6112cc5760405162461bcd60e51b8152600401610539906143e8565b600b5460148054604080516020808402820181019092528281526000939092909183018282801561131c57602002820191906000526020600020905b815481526020019060010190808311611308575b50505050509050600061132f83836127c8565b9050600061133d8483612b0f565b905060005b8481101561140e57600160005b868110156113dc57836113638260016144db565b8151811061138157634e487b7160e01b600052603260045260246000fd5b602002602001015183600161139691906144db565b815181106113b457634e487b7160e01b600052603260045260246000fd5b6020026020010151156113ca57600091506113dc565b806113d481614668565b91505061134f565b5080156113fb576113ee8260016144db565b9650505050505050610506565b508061140681614668565b915050611342565b50600094505050505090565b6001600160e81b031660009081526006602052604090205460ff1690565b61144c6005546001600160a01b0316331490565b6114685760405162461bcd60e51b81526004016105399061442f565b61063281612cf7565b6000600a5460ff16600281111561149857634e487b7160e01b600052602160045260246000fd5b1480156114a75750600c544210155b156114b9576114b4612642565b6114fc565b6001600a5460ff1660028111156114e057634e487b7160e01b600052602160045260246000fd5b1480156114ef5750600e544210155b156114fc576114fc61268c565b600180600a5460ff16600281111561152457634e487b7160e01b600052602160045260246000fd5b146115415760405162461bcd60e51b8152600401610539906143e8565b848660405160200161155591815260200190565b604051602081830303815290604052805190602001201461157557600080fd5b6115a28560405160200161158b91815260200190565b604051602081830303815290604052858585612db8565b6000868152601260205260409020546115eb57601480546001810182556000919091527fce6d7b5282bd9a3661ae061feed1dbda4e52ab073b1f9285be6e155d9c38d4ec018690555b600086815260126020526040812080549161160583614668565b90915550506013805490600061161a83614668565b91905055506116276105e9565b60135414156116385761163861268c565b505050505050565b611648613bc7565b611650613be5565b611658613bc7565b50506040805180820182528351815260208085015181830152825160808082018552868501518286019081526060808901519084015282528451808601865290870151815260a08701518184015281830152835180850190945260c0860151845260e0909501519083015293909150565b60006002600a5460ff1660028111156116f257634e487b7160e01b600052602160045260246000fd5b14806105f4575050600e5442101590565b6001600160e81b03811660009081526006602052604090205460ff161561177e5760405162461bcd60e51b815260206004820152602960248201527f53656d6170686f72653a2065787465726e616c206e756c6c696669657220616c6044820152681c9958591e481cd95d60ba1b6064820152608401610539565b6001600160e81b038116600081815260066020526040808220805460ff19166001179055517fd1ca56647596090d70fa8d49bcc376b97248314e3f204c491333b3440405f5899190a250565b60008060028510156117e0576000915050610875565b6001846117ed828861463a565b8151811061180b57634e487b7160e01b600052603260045260246000fd5b602002602001015161181d919061463a565b90508360018461182d828961463a565b8151811061184b57634e487b7160e01b600052603260045260246000fd5b602002602001015161185d919061463a565b8151811061187b57634e487b7160e01b600052603260045260246000fd5b602002602001015184600187611891919061463a565b815181106118af57634e487b7160e01b600052603260045260246000fd5b6020026020010151856001886118c5919061463a565b815181106118e357634e487b7160e01b600052603260045260246000fd5b602002602001018660018760018b6118fb919061463a565b8151811061191957634e487b7160e01b600052603260045260246000fd5b602002602001015161192b919061463a565b8151811061194957634e487b7160e01b600052603260045260246000fd5b6020908102919091010191909152528261196460018761463a565b8151811061198257634e487b7160e01b600052603260045260246000fd5b60200260200101518382815181106119aa57634e487b7160e01b600052603260045260246000fd5b60200260200101518483815181106119d257634e487b7160e01b600052603260045260246000fd5b60200260200101856001896119e7919061463a565b81518110611a0557634e487b7160e01b600052603260045260246000fd5b602090810291909101019190915252611a29611a2260018761463a565b85856117ca565b611a33908661461b565b611a3d90826144db565b95945050505050565b6003546000908190815b8551811015611b7c576000805160206146fa833981519152868281518110611a8857634e487b7160e01b600052603260045260246000fd5b602002602001015110611b195760405162461bcd60e51b815260206004820152604d60248201527f496e6372656d656e74616c4d65726b6c65547265653a20696e736572744c656160448201527f76657320617267756d656e74206d757374206265203c204d41585f534e41524b60648201526c17d4d0d053105497d192515311609a1b608482015260a401610539565b600154611b2781600261454d565b8310611b455760405162461bcd60e51b8152600401610539906143a5565b6000828152600260205260408082205485835291205582611b6581614668565b935050508080611b7490614668565b915050611a50565b5060038190556004849055845184908290611b97908261463a565b6040517f9f01406e603b9f0fdf02bba8d0c0017d119cbf18a3744bf726c43f6e5683eefc90600090a48451611bcc908261463a565b9590945092505050565b611bde613c12565b6040805180820182527f2c674b34e6335c0bd2456682014df9231f6c54cf84e126da095e0324deba7c9a81527ec089af85765ea605511518f44a6d8cd6e643b22a7f2e2978891ca0aac055016020808301919091529083528151608080820184527f2cb0f695fddfe5720937663f6a8b77aa51282b697e59fcd233057228c10c8c468285019081527f12f42d76984f862ea64111658fffd1b0933032c09cfbd2b4c7fba90f817c5b6e606080850191909152908352845180860186527f04acf6e30b3762ed1bf2ec11a78a34245d94f5f8182605aa1e7e67118007c14c81527f1fb51c1e4f3f0d7ff50df9ea8e7b8c2ffd4020fda00992eb007578040b1a0508818601528385015285840192909252835180820185527f063f275e1178cd29c3cbcab568a2179db3dd75818e5a6190c8b926c43b24c1b08186019081527f09f20ac32b3c61e71ee2b1214dd85512f69e5c6071fc090bc08958148eab4773828501528152845180860186527f0182ee82371ef68acfe512c72eb87d5853100d78b18fa8994b9346533e6912ad81527f2e678762a939fd5fbbe93f5833cebe9a36e799fe39cb907d6c7246737dd8fbb4818601528185015285850152835180820185527f213a7c3c38ecfdf380c3ebca9e69ae20e8fa34dbd16e683ebda468203851f91d8186019081527f1c91de1a10f7cb8ad41f4600b1797dbe0be7ffd499cd6cf1d9a3b4393c0f7e96828501528152845180860186527f13b9d3a697c895e04ed94c1edb1f6ed934ef1b3159c5043f2a947c694d9be88f81527f1d76846d92cd8a8c592eb2cbbf79ab1d00de1d1fd232f59fea105bfed1018eff818601528185015282860152835180850185527f21aa860ff92809d69a84539a108e0eb3df7c175f6405430ac8c7fa38da0fb11381527f26db25e554a13e3873a0b5a67b6f099ee620a0dd4384e65f917d5a2151e48a9781850152818601805191909152845180860186527f11b4dbe8afd4be7cd8aa66123924a37d75eb7482445dd8d227c0579efc773bc081527f0a4041f45ad62c517d431bf07b1a718ef181c7469a49ecc78365db7185c712e5818601528151850152845180860186527f015190c06d4ef463d5873cd1442b5a8f58a898d0dbeeddb6a0e3708d62b838db81527f0d3c2bdd5b81a9dfcdb6e74f690963a8f372cbe022b9d40f79ee43b82c9ea35c818601528151860152845180860186527f1d8735777a2a2030c0794181bd7331ef6922e75f79212eb912458a6e55dc827881527f12a9d0d539907190e03e067a4055a4ede13e72c1db80cf97278bcba5800c91488186015281519093019290925283518085019094527f0a5869320277301310aea5e9b42e9d9c70e3bc52703cb5a5606c3754cf29763a84527f2819705fceed82ec16a0886aea5224a2c8a4e34ce6a143268704ed94d0842d109284019290925251015290565b6040805180820190915260008082526020820152612012613c63565b835181526020808501519082015260408101839052600060608360808460076107d05a03fa905080801561204557612047565bfe5b508061208a5760405162461bcd60e51b81526020600482015260126024820152711c185a5c9a5b99cb5b5d5b0b59985a5b195960721b6044820152606401610539565b505092915050565b60408051808201909152600080825260208201526120ae613c81565b8351815260208085015181830152835160408301528301516060808301919091526000908360c08460066107d05a03fa905080801561204557508061208a5760405162461bcd60e51b81526020600482015260126024820152711c185a5c9a5b99cb5859190b59985a5b195960721b6044820152606401610539565b6040805180820190915260008082526020820152815115801561214f57506020820151155b1561216e575060408051808201909152600080825260208201526105e4565b6040518060400160405280836000015181526020016000805160206146da83398151915284602001516121a19190614683565b6121b9906000805160206146da83398151915261463a565b905290506105e4565b60408051608080820183528a825260208083018a90528284018890526060808401879052845192830185528b83528282018a9052828501889052820185905283516018808252610320820190955260009491859190839082016103008036833701905050905060005b60048110156124da57600061224182600661461b565b905085826004811061226357634e487b7160e01b600052603260045260246000fd5b602002015151836122758360006144db565b8151811061229357634e487b7160e01b600052603260045260246000fd5b6020026020010181815250508582600481106122bf57634e487b7160e01b600052603260045260246000fd5b602002015160200151838260016122d691906144db565b815181106122f457634e487b7160e01b600052603260045260246000fd5b60200260200101818152505084826004811061232057634e487b7160e01b600052603260045260246000fd5b60200201515151836123338360026144db565b8151811061235157634e487b7160e01b600052603260045260246000fd5b60200260200101818152505084826004811061237d57634e487b7160e01b600052603260045260246000fd5b60200201515160016020020151836123968360036144db565b815181106123b457634e487b7160e01b600052603260045260246000fd5b6020026020010181815250508482600481106123e057634e487b7160e01b600052603260045260246000fd5b60200201516020015160006002811061240957634e487b7160e01b600052603260045260246000fd5b60200201518361241a8360046144db565b8151811061243857634e487b7160e01b600052603260045260246000fd5b60200260200101818152505084826004811061246457634e487b7160e01b600052603260045260246000fd5b60200201516020015160016002811061248d57634e487b7160e01b600052603260045260246000fd5b60200201518361249e8360056144db565b815181106124bc57634e487b7160e01b600052603260045260246000fd5b602090810291909101015250806124d281614668565b91505061222b565b506124e3613c9f565b6000602082602086026020860160086107d05a03fa90508080156120455750806125475760405162461bcd60e51b81526020600482015260156024820152741c185a5c9a5b99cb5bdc18dbd9194b59985a5b1959605a1b6044820152606401610539565b505115159d9c50505050505050505050505050565b80516000906000805160206146fa83398151915211801561258e575060208201516000805160206146fa833981519152115b80156125ab575060408201516000805160206146fa833981519152115b80156125c8575060608201516000805160206146fa833981519152115b80156125e5575060808201516000805160206146fa833981519152115b8015612602575060a08201516000805160206146fa833981519152115b801561261f575060c08201516000805160206146fa833981519152115b801561263c575060e08201516000805160206146fa833981519152115b92915050565b61264c600161307d565b600f5461265990426144db565b600e55600160005b6040517fe8a97ea87e4388fa22d496b95a8ed5ced6717f49790318de2b928aaf37a021d890600090a3565b612696600261307d565b60026001612661565b6003546000906000805160206146fa833981519152841061273c5760405162461bcd60e51b815260206004820152604b60248201527f496e6372656d656e74616c4d65726b6c65547265653a20696e736572744c656160448201527f6620617267756d656e74206d757374206265203c204d41585f534e41524b5f5360648201526a10d053105497d19251531160aa1b608482015260a401610539565b60015461274a81600261454d565b82106127685760405162461bcd60e51b8152600401610539906143a5565b6000828152600260205260408120869055600380549161278783614668565b909155505060048490556040518490839081907f9f01406e603b9f0fdf02bba8d0c0017d119cbf18a3744bf726c43f6e5683eefc90600090a4509392505050565b6060600060026127d960018661463a565b6127e3908661461b565b6127ed91906144f3565b90506000816001600160401b0381111561281757634e487b7160e01b600052604160045260246000fd5b60405190808252806020026020018201604052801561285057816020015b61283d613c81565b8152602001906001900390816128355790505b50905060005b8451811015612b0657600085828151811061288157634e487b7160e01b600052603260045260246000fd5b602002602001015190506000601260008381526020019081526020016000205490506000806128b0848b6130b2565b905060005b8a811015612aee5760006128ca8260016144db565b90505b8b811015612adb578784815181106128f557634e487b7160e01b600052603260045260246000fd5b602002602001015160006004811061291d57634e487b7160e01b600052603260045260246000fd5b60200201516129d7576129318260016144db565b88858151811061295157634e487b7160e01b600052603260045260246000fd5b602002602001015160006004811061297957634e487b7160e01b600052603260045260246000fd5b60200201526129898160016144db565b8885815181106129a957634e487b7160e01b600052603260045260246000fd5b60200260200101516001600481106129d157634e487b7160e01b600052603260045260246000fd5b60200201525b6129f6836129e68460016144db565b6129f18460016144db565b613169565b15612a5d5784888581518110612a1c57634e487b7160e01b600052603260045260246000fd5b6020026020010151600260048110612a4457634e487b7160e01b600052603260045260246000fd5b60200201818151612a5591906144db565b905250612abb565b84888581518110612a7e57634e487b7160e01b600052603260045260246000fd5b6020026020010151600360048110612aa657634e487b7160e01b600052603260045260246000fd5b60200201818151612ab791906144db565b9052505b83612ac581614668565b9450508080612ad390614668565b9150506128cd565b5080612ae681614668565b9150506128b5565b50505050508080612afe90614668565b915050612856565b50949350505050565b60606000612b1d8484613205565b9050612b28816136f8565b6000612b3d612b388660016144db565b6138b1565b905060005b8251811015612b0657612bef838281518110612b6e57634e487b7160e01b600052603260045260246000fd5b6020026020010151600160038110612b9657634e487b7160e01b600052603260045260246000fd5b6020020151848381518110612bbb57634e487b7160e01b600052603260045260246000fd5b6020026020010151600060038110612be357634e487b7160e01b600052603260045260246000fd5b602002015188856139b1565b612ce557600182848381518110612c1657634e487b7160e01b600052603260045260246000fd5b6020026020010151600060038110612c3e57634e487b7160e01b600052603260045260246000fd5b602002015181518110612c6157634e487b7160e01b600052603260045260246000fd5b6020026020010151848381518110612c8957634e487b7160e01b600052603260045260246000fd5b6020026020010151600160038110612cb157634e487b7160e01b600052603260045260246000fd5b602002015181518110612cd457634e487b7160e01b600052603260045260246000fd5b911515602092830291909101909101525b80612cef81614668565b915050612b42565b6001600160a01b038116612d5c5760405162461bcd60e51b815260206004820152602660248201527f4f776e61626c653a206e6577206f776e657220697320746865207a65726f206160448201526564647265737360d01b6064820152608401610539565b6005546040516001600160a01b038084169216907f8be0079c531659141344cd1fd0a4f28419497f9722a3daafe3b4186f6b6457e090600090a3600580546001600160a01b0319166001600160a01b0392909216919091179055565b60075460ff161580612dd95750612dd96005546001600160a01b0316331490565b612e345760405162461bcd60e51b815260206004820152602660248201527f53656d6170686f72653a2062726f616463617374207065726d697373696f6e2060448201526519195b9a595960d21b6064820152608401610539565b83838383612e418361255c565b612ea25760405162461bcd60e51b815260206004820152602c60248201527f53656d6170686f72653a20696e76616c6964206669656c6420656c656d656e7460448201526b1439949034b710383937b7b360a11b6064820152608401610539565b60008281526008602052604090205460ff1615612f0b5760405162461bcd60e51b815260206004820152602160248201527f53656d6170686f72653a206e756c6c696669657220616c7265616479207365656044820152603760f91b6064820152608401610539565b612f148161141a565b612f305760405162461bcd60e51b815260040161053990614464565b8351602085012060081c6000805160206146fa8339815191528310612fbf576040805162461bcd60e51b81526020600482015260248101919091527f53656d6170686f72653a20746865206e756c6c6966696572732068617368206d60448201527f757374206265206c742074686520736e61726b207363616c6172206669656c646064820152608401610539565b604080516080810182526004548152602081018590529081018290526001600160e81b038316606082015260008080612ff788611640565b9250925092506130098383838761087c565b6130555760405162461bcd60e51b815260206004820152601860248201527f53656d6170686f72653a20696e76616c69642070726f6f6600000000000000006044820152606401610539565b50505060009788525050600860205250506040909320805460ff191660011790555050505050565b600a805482919060ff191660018360028111156130aa57634e487b7160e01b600052602160045260246000fd5b021790555050565b6060600080836001600160401b038111156130dd57634e487b7160e01b600052604160045260246000fd5b604051908082528060200260200182016040528015613106578160200160208202803683370190505b509050600091505b8382101561315e576131218260016144db565b81838151811061314157634e487b7160e01b600052603260045260246000fd5b60209081029190910101528161315681614668565b92505061310e565b610d8e858583613a54565b6000805b84518110156131fa578385828151811061319757634e487b7160e01b600052603260045260246000fd5b602002602001015114156131af576001915050610875565b828582815181106131d057634e487b7160e01b600052603260045260246000fd5b602002602001015114156131e8576000915050610875565b806131f281614668565b91505061316d565b506000949350505050565b60606000600261321660018661463a565b613220908661461b565b61322a91906144f3565b90506000816001600160401b0381111561325457634e487b7160e01b600052604160045260246000fd5b60405190808252806020026020018201604052801561328d57816020015b61327a613c63565b8152602001906001900390816132725790505b50905060005b8451811015612b06578481815181106132bc57634e487b7160e01b600052603260045260246000fd5b60200260200101516003600481106132e457634e487b7160e01b600052603260045260246000fd5b602002015185828151811061330957634e487b7160e01b600052603260045260246000fd5b602002602001015160026004811061333157634e487b7160e01b600052603260045260246000fd5b602002015111156135135784818151811061335c57634e487b7160e01b600052603260045260246000fd5b602002602001015160006004811061338457634e487b7160e01b600052603260045260246000fd5b60200201518282815181106133a957634e487b7160e01b600052603260045260246000fd5b60200260200101516000600381106133d157634e487b7160e01b600052603260045260246000fd5b602002015284518590829081106133f857634e487b7160e01b600052603260045260246000fd5b602002602001015160016004811061342057634e487b7160e01b600052603260045260246000fd5b602002015182828151811061344557634e487b7160e01b600052603260045260246000fd5b602002602001015160016003811061346d57634e487b7160e01b600052603260045260246000fd5b6020020152845185908290811061349457634e487b7160e01b600052603260045260246000fd5b60200260200101516002600481106134bc57634e487b7160e01b600052603260045260246000fd5b60200201518282815181106134e157634e487b7160e01b600052603260045260246000fd5b602002602001015160026003811061350957634e487b7160e01b600052603260045260246000fd5b60200201526136e6565b84818151811061353357634e487b7160e01b600052603260045260246000fd5b602002602001015160016004811061355b57634e487b7160e01b600052603260045260246000fd5b602002015182828151811061358057634e487b7160e01b600052603260045260246000fd5b60200260200101516000600381106135a857634e487b7160e01b600052603260045260246000fd5b602002015284518590829081106135cf57634e487b7160e01b600052603260045260246000fd5b60200260200101516000600481106135f757634e487b7160e01b600052603260045260246000fd5b602002015182828151811061361c57634e487b7160e01b600052603260045260246000fd5b602002602001015160016003811061364457634e487b7160e01b600052603260045260246000fd5b6020020152845185908290811061366b57634e487b7160e01b600052603260045260246000fd5b602002602001015160036004811061369357634e487b7160e01b600052603260045260246000fd5b60200201518282815181106136b857634e487b7160e01b600052603260045260246000fd5b60200260200101516002600381106136e057634e487b7160e01b600052603260045260246000fd5b60200201525b806136f081614668565b915050613293565b805160015b8181101561117057600083828151811061372757634e487b7160e01b600052603260045260246000fd5b602002602001015160026003811061374f57634e487b7160e01b600052603260045260246000fd5b60200201519050600061376360018461463a565b9050600085848151811061378757634e487b7160e01b600052603260045260246000fd5b602002602001015190505b828683815181106137b357634e487b7160e01b600052603260045260246000fd5b60200260200101516002600381106137db57634e487b7160e01b600052603260045260246000fd5b602002015110156138655785828151811061380657634e487b7160e01b600052603260045260246000fd5b60200260200101518683600161381c91906144db565b8151811061383a57634e487b7160e01b600052603260045260246000fd5b6020026020010181905250816000141561385357613865565b8161385d81614651565b925050613792565b80866138728460016144db565b8151811061389057634e487b7160e01b600052603260045260246000fd5b602002602001018190525050505080806138a990614668565b9150506136fd565b60606000826001600160401b038111156138db57634e487b7160e01b600052604160045260246000fd5b60405190808252806020026020018201604052801561390e57816020015b60608152602001906001900390816138f95790505b50905060005b838110156139aa57836001600160401b0381111561394257634e487b7160e01b600052604160045260246000fd5b60405190808252806020026020018201604052801561396b578160200160208202803683370190505b5082828151811061398c57634e487b7160e01b600052603260045260246000fd5b602002602001018190525080806139a290614668565b915050613914565b5092915050565b6000838514156139c357506001610d8e565b60005b83811015613a48578286815181106139ee57634e487b7160e01b600052603260045260246000fd5b60200260200101518181518110613a1557634e487b7160e01b600052603260045260246000fd5b602002602001015115613a3657613a2e818686866139b1565b915050610d8e565b80613a4081614668565b9150506139c6565b50600095945050505050565b6000806001841015613a67575050611170565b613a7184866144f3565b9150613a7d8486614683565b905082613a8b60018661463a565b81518110613aa957634e487b7160e01b600052603260045260246000fd5b6020026020010151838281518110613ad157634e487b7160e01b600052603260045260246000fd5b6020026020010151848381518110613af957634e487b7160e01b600052603260045260246000fd5b6020026020010185600188613b0e919061463a565b81518110613b2c57634e487b7160e01b600052603260045260246000fd5b602090810291909101019190915252613b5082613b4a60018761463a565b85613a54565b5050505050565b6040518061010001604052806008906020820280368337509192915050565b6040805160a081019091526000606082018181526080830191909152815260208101613ba0613cbd565b8152602001613bc2604051806040016040528060008152602001600081525090565b905290565b60405180604001604052806002906020820280368337509192915050565b60405180604001604052806002905b613bfc613bc7565b815260200190600190039081613bf45790505090565b6040805160e08101909152600060a0820181815260c0830191909152815260208101613c3c613cbd565b8152602001613c49613cbd565b8152602001613c56613cbd565b8152602001613bc2613cdd565b60405180606001604052806003906020820280368337509192915050565b60405180608001604052806004906020820280368337509192915050565b60405180602001604052806001906020820280368337509192915050565b6040518060400160405280613cd0613bc7565b8152602001613bc2613bc7565b6040518060a001604052806005905b6040805180820190915260008082526020820152815260200190600190039081613cec5790505090565b60006001600160401b03831115613d2f57613d2f6146c3565b8260051b613d3c816144ab565b91508183868386011115613d4f57600080fd5b600092505b85831015613d7357803582526001929092019160209182019101613d54565b5050509392505050565b600082601f830112613d8d578081fd5b6040613d98816144ab565b808486608087011115613da9578485fd5b845b6002811015613dd257613dbe8883613dde565b845260209093019290840190600101613dab565b50909695505050505050565b600082601f830112613dee578081fd5b613df860406144ab565b808385604086011115613e09578384fd5b835b6002811015613e2a578135845260209384019390910190600101613e0b565b509095945050505050565b600082601f830112613e45578081fd5b61087583600884613d16565b600082601f830112613e61578081fd5b813560206001600160401b03821115613e7c57613e7c6146c3565b8160051b613e8b8282016144ab565b838152828101908684018388018501891015613ea5578687fd5b8693505b85841015613ec7578035835260019390930192918401918401613ea9565b50979650505050505050565b80356001600160e81b03811681146105e457600080fd5b600060208284031215613efb578081fd5b81356001600160a01b0381168114610875578182fd5b60008060006101008486031215613f26578182fd5b613f308585613dde565b9250613f3f8560408601613d7d565b9150613f4e8560c08601613dde565b90509250925092565b6000806000806101808587031215613f6d578081fd5b613f778686613dde565b9350613f868660408701613d7d565b9250613f958660c08701613dde565b91508561011f860112613fa6578081fd5b613fb68660046101008801613d16565b905092959194509250565b60006101008284031215613fd3578081fd5b6108758383613e35565b600060208284031215613fee578081fd5b81356001600160401b03811115614003578182fd5b610d8e84828501613e51565b60008060408385031215614021578182fd5b82356001600160401b03811115614036578283fd5b61404285828601613e51565b95602094909401359450505050565b600060208284031215614062578081fd5b81358015158114610875578182fd5b60008060008060006101808688031215614089578283fd5b85356001600160401b038082111561409f578485fd5b818801915088601f8301126140b2578485fd5b81356020828211156140c6576140c66146c3565b6140d8601f8301601f191682016144ab565b92508183528a818386010111156140ed578687fd5b81818501828501378681838501015282985061410b8b828c01613e35565b9750505050506101208601359250610140860135915061412e6101608701613ed3565b90509295509295909350565b6000806020838503121561414c578182fd5b82356001600160401b0380821115614162578384fd5b818501915085601f830112614175578384fd5b813581811115614183578485fd5b866020828501011115614194578485fd5b60209290920196919550909350505050565b6000602082840312156141b7578081fd5b61087582613ed3565b6000602082840312156141d1578081fd5b5035919050565b600080600080600061018086880312156141f0578283fd5b85359450602086013593506142088760408801613e35565b9250610140860135915061412e6101608701613ed3565b60008060408385031215614231578182fd5b50508035926020909101359150565b8060005b6002811015614263578151845260209384019390910190600101614244565b50505050565b61010081016142788286614240565b60408083018560005b60028110156142a857614295838351614240565b9183019160209190910190600101614281565b50505050610d8e60c0830184614240565b6101008101818360005b60088110156142e25781518352602092830192909101906001016142c3565b50505092915050565b6020808252825182820181905260009190848201906040850190845b81811015613dd257835183529284019291840191600101614307565b60006020825282602083015282846040840137818301604090810191909152601f909201601f19160101919050565b6000602080835283518082850152825b8181101561437e57858101830151858201604001528201614362565b8181111561438f5783604083870101525b50601f01601f1916929092016040019392505050565b60208082526023908201527f496e6372656d656e74616c4d65726b6c65547265653a207472656520697320666040820152621d5b1b60ea1b606082015260800190565b60208082526027908201527f46756e6374696f6e2063616e6e6f742062652063616c6c65642061742074686960408201526639903a34b6b29760c91b606082015260800190565b6020808252818101527f4f776e61626c653a2063616c6c6572206973206e6f7420746865206f776e6572604082015260600190565b60208082526027908201527f53656d6170686f72653a2065787465726e616c206e756c6c6966696572206e6f6040820152661d08199bdd5b9960ca1b606082015260800190565b604051601f8201601f191681016001600160401b03811182821017156144d3576144d36146c3565b604052919050565b600082198211156144ee576144ee614697565b500190565b600082614502576145026146ad565b500490565b80825b60018086116145195750614544565b81870482111561452b5761452b614697565b8086161561453857918102915b9490941c93800261450a565b94509492505050565b6000610875600019848460008261456657506001610875565b8161457357506000610875565b81600181146145895760028114614593576145c0565b6001915050610875565b60ff8411156145a4576145a4614697565b6001841b9150848211156145ba576145ba614697565b50610875565b5060208310610133831016604e8410600b84101617156145f3575081810a838111156145ee576145ee614697565b610875565b6146008484846001614507565b80860482111561461257614612614697565b02949350505050565b600081600019048311821515161561463557614635614697565b500290565b60008282101561464c5761464c614697565b500390565b60008161466057614660614697565b506000190190565b600060001982141561467c5761467c614697565b5060010190565b600082614692576146926146ad565b500690565b634e487b7160e01b600052601160045260246000fd5b634e487b7160e01b600052601260045260246000fd5b634e487b7160e01b600052604160045260246000fdfe30644e72e131a029b85045b68181585d97816a916871ca8d3c208c16d87cfd4730644e72e131a029b85045b68181585d2833e84879b9709143e1f593f0000001a26469706673582212205cbaf0d0cc874a451eaa29c5ce5815d43f46faa344ef1884a7cadc6896bfa58e64736f6c63430008030033",
    "sourcePath": "/home/ceyonur/workspace/boun/gentract/contracts/semaphore/optimized/ZKPairVoting.sol",
    "compiler": {
        "name": "solc",
        "version": "0.8.3+commit.8d00100c"
    },
    "functionHashes": {
        "NOTHING_UP_MY_SLEEVE_ZERO()": "6ebf6265",
        "activateExternalNullifier(uint232)": "428c3eba",
        "currentProposals()": "9dd8e76f",
        "currentState()": "0c3f6acf",
        "deactivateExternalNullifier(uint232)": "23baaa83",
        "electionResult()": "e22b5d19",
        "externalNullifiers(uint232)": "2fac6dce",
        "getNumIdentityCommitments()": "ba10b81d",
        "getRank(uint256[])": "5785aee1",
        "insertIdentities(uint256[],uint256)": "5b5f31e5",
        "insertIdentity(uint256,uint256)": "cb375a42",
        "isBroadcastPermissioned()": "283ebaf4",
        "isEligibleProposer(address)": "2e36a756",
        "isExternalNullifierActive(uint232)": "eac4287e",
        "isOwner()": "8f32d59b",
        "nullifierHashHistory(uint256)": "c4cd5596",
        "owner()": "8da5cb5b",
        "packProof(uint256[2],uint256[2][2],uint256[2])": "5e05ea17",
        "preBroadcastCheck(bytes,uint256[8],uint256,uint256,uint232)": "93a468f4",
        "propose(string)": "aa98df39",
        "renounceOwnership()": "715018a6",
        "root()": "ebf0c717",
        "setPermissioning(bool)": "ce85bbdb",
        "transferOwnership(address)": "f2fde38b",
        "unpackProof(uint256[8])": "f5ab0dd6",
        "verifyProof(uint256[2],uint256[2][2],uint256[2],uint256[4])": "5fe8c13b",
        "vote(uint256,bytes32,uint256[8],uint256,uint232)": "f484302d",
        "voterCount()": "42169e48"
    },
    "gasEstimates": {
        "creation": {
            "codeDepositCost": "3651000",
            "executionCost": "infinite",
            "totalCost": "infinite"
        },
        "external": {
            "NOTHING_UP_MY_SLEEVE_ZERO()": "1062",
            "activateExternalNullifier(uint232)": "24264",
            "currentProposals()": "infinite",
            "currentState()": "infinite",
            "deactivateExternalNullifier(uint232)": "24570",
            "electionResult()": "infinite",
            "externalNullifiers(uint232)": "1299",
            "getNumIdentityCommitments()": "1059",
            "getRank(uint256[])": "infinite",
            "insertIdentities(uint256[],uint256)": "infinite",
            "insertIdentity(uint256,uint256)": "infinite",
            "isBroadcastPermissioned()": "1101",
            "isEligibleProposer(address)": "1281",
            "isExternalNullifierActive(uint232)": "1350",
            "isOwner()": "1070",
            "nullifierHashHistory(uint256)": "1239",
            "owner()": "1112",
            "packProof(uint256[2],uint256[2][2],uint256[2])": "infinite",
            "preBroadcastCheck(bytes,uint256[8],uint256,uint256,uint232)": "infinite",
            "propose(string)": "47381",
            "renounceOwnership()": "24266",
            "root()": "1039",
            "setPermissioning(bool)": "23139",
            "transferOwnership(address)": "24475",
            "unpackProof(uint256[8])": "infinite",
            "verifyProof(uint256[2],uint256[2][2],uint256[2],uint256[4])": "infinite",
            "vote(uint256,bytes32,uint256[8],uint256,uint232)": "infinite",
            "voterCount()": "1120"
        },
        "internal": {
            "_checkCycle(uint256,uint256,uint256,bool[] memory[] memory)": "infinite",
            "_getLockedPairs(uint256,uint256[4] memory[] memory)": "infinite",
            "_getPrefPairs(uint256,uint256[] memory)": "infinite",
            "_getWinningPairs(uint256,uint256[4] memory[] memory)": "infinite",
            "_mr_rank1(uint256,uint256[] memory,uint256[] memory)": "infinite",
            "_mr_unrank1(uint256,uint256,uint256[] memory)": "infinite",
            "_setupProposer(address)": "infinite",
            "addProposers(address[] memory)": "infinite",
            "get_permutation(uint256,uint256)": "infinite",
            "initMultiArray(uint256)": "infinite",
            "insertionSort(uint256[3] memory[] memory)": "infinite",
            "isCompletedState()": "1687",
            "isFirstInArray(uint256[] memory,uint256,uint256)": "infinite",
            "toCompletedState()": "22452",
            "toState(enum ZKPairVoting.States)": "20880",
            "toVotingState()": "43316"
        }
    }
}